:020000040800F2
:1000000020040020450100084D0100084F010008B0
:1000100051010008530100085501000800000000CC
:100020000000000000000000000000005701000870
:1000300059010008000000005B0100085D01000894
:100040005F0100085F0100085F0100085F01000810
:100050005F0100085F0100085F0100085F01000800
:100060005F0100085F0100085F0100085F010008F0
:100070005F0100085F0100085F0100085F010008E0
:100080005F0100085F0100085F0100085F010008D0
:100090005F0100085F0100085F0100085F010008C0
:1000A0005F0100085F0100085F0100085F010008B0
:1000B0005F0100085F0100085F0100085F010008A0
:1000C0005F0100085F0100085F0100085F01000890
:1000D0005F0100085F0100085F0100085F01000880
:1000E0005F0100085F0100085F0100085F01000870
:1000F0005F0100085F0100085F0100085F01000860
:100100005F0100085F0100085F0100085F0100084F
:100110005F0100085F0100085F0100085F0100083F
:100120005F0100085F0100085F0100085F0100082F
:10013000DFF80CD000F018F800480047B90A0008B2
:10014000200400200648804706480047FEE7FEE7F7
:10015000FEE7FEE7FEE7FEE7FEE7FEE7FEE7FEE777
:10016000F509000831010008064C074D06E0E0687B
:1001700040F0010394E8070098471034AC42F6D3EE
:10018000FFF7DAFF0C2B00082C2B000810B5F0232A
:100190004FF4A0720021084600F062FB222000F01C
:1001A0009FFC00BF00BF002404E00648008800F068
:1001B0009FFC641CB4F5963FF7D300BF00BF00203E
:1001C00010BD0000020000202DE9F05F8046894646
:1001D00014461F46DDF828A0D3463B462246494632
:1001E000404600F03DFB222000F07AFC00BF00BF3B
:1001F000781E00FB04F50AE0002605E0A9193BF88B
:10020000110000F075FC761CA642F7D32D1B002DC3
:10021000F2DA00BF00BF0020BDE8F09F70B5FE48D5
:10022000806940F2ED110843FB498861FB48006892
:1002300000F0FF2444F0BB10F8490860081D006876
:10024000F74900EA0104F7482043F449091D086012
:10025000F548006820F0704444F03040F2490860EE
:100260004FF0BB30091D0860F048006820F00F0413
:1002700044F00B00ED490860ED484068ED4900EAA4
:100280000104ED482043EA494860EC480068EB4926
:100290000860EA481038006820F00F0444F00300BA
:1002A000E64910390860DC48406940F48070DA495A
:1002B000486140F205404107C86141F21120886160
:1002C000322000F0DDFB0026304600F009FC00F093
:1002D00003FC0546472D7DD10120D9490870002136
:1002E000EA2000F009FC2021EB2000F005FC0C21A5
:1002F000EC2000F001FCC721ED2000F0FDFB3821CF
:10030000E82000F0F9FB1021E92000F0F5FB0121C5
:10031000F12000F0F1FB1021F22000F0EDFB0121B3
:10032000402000F0E9FB0021412000F0E5FB002126
:10033000422000F0E1FB1021432000F0DDFB0E2104
:10034000442000F0D9FB2421452000F0D5FB0421F6
:10035000462000F0D1FB5021472000F0CDFB0221C8
:10036000482000F0C9FB1321492000F0C5FB1921EA
:100370004A2000F0C1FB19214B2000F0BDFB1621E3
:100380004C2000F0B9FB1B21502000F0B5FB3121BF
:10039000512000F0B1FB2F21522000F0ADFB3F2196
:1003A000532000F0A9FB3F21542000F0A5FB3E2183
:1003B000552000F0A1FB2F21562000F09DFB7B2152
:1003C000572000F099FB0921582000F095FB0621E9
:1003D000592000E089E000F08FFB06215A2000F050
:1003E0008BFB0C215B2000F087FB1D215C2000F0C3
:1003F00083FBCC215D2000F07FFB1B21084600F031
:100400007BFB01211A2000F077FB2F21242000F034
:1004100073FB5721252000F06FFB8821232000F07B
:100420006BFB3621182000F067FB0121192000F03A
:1004300063FB0021012000F05FFB88211F2000F0FA
:100440005BFBC82000F01CFB82211F2000F054FB46
:10045000322000F015FB92211F2000F04DFB3220CE
:1004600000F00EFBD2211F2000F046FB322000F0EE
:1004700007FB5521172000F03FFB0021084600F044
:100480003BFB11212F2000F037FB0021312000F031
:1004900033FB0021322000F02FFB3821282000F010
:1004A0002BFBC82000F0ECFA3C21282000F024FBB4
:1004B000A821162000F020FB00210E2000F01CFBDC
:1004C00000210F2000F018FB0121102000F014FB88
:1004D0004021112000F010FB0021122000F00CFB45
:1004E0000021132000F008FBA9E100205449087006
:1004F0004FF48071012000F0FFFA4FF4E061022018
:1005000000F0FAFA0021042000F0F6FA40F2072188
:10051000082000F0F1FA0021092000F0EDFA002196
:100520000A2000F0E9FA00210C2000F0E5FA002191
:100530000D2000F0E1FA00210F2000F0DDFA00218B
:10054000102000F0D9FA0021112000F0D5FA002186
:10055000122000F0D1FA0021132000F0CDFAC820BB
:1005600000F08EFA41F2B021102000F0C5FA072108
:10057000112000F0C1FA322000F082FA40F2BD11E1
:10058000122000F0B9FA322000F07AFA4FF4A051AC
:10059000132000F0B1FA0E21292000F0ADFA32202C
:1005A00000F06EFA0021202000F0A6FA00212120A0
:1005B00000F0A2FAA5F5A840083838B1A0F57C50A3
:1005C000183800287DD005287CD167E040F60D3131
:1005D000302000F091FA41F62311312000F08CFA1E
:1005E00041F62641322000F087FA42F21C613320A6
:1005F00000F082FA42F21941342000F07DFA40F610
:100600000B51352000F078FA41F20601362000F057
:1006100073FA4FF4C26115E000100240001401406B
:1006200000F0FF00BB0B00BB00180140001C0140A4
:1006300000200140FFF0F0FF000B0B001408014008
:1006400008000020372000F057FA40F206713820E9
:1006500000F052FA4FF44171392000F04DFA40F6A3
:1006600005613A2000F048FA40F601613B2000F0B5
:1006700043FA4FF487713C2000F03EFA40F20E51ED
:100680003D2000F039FA40F203413E2000F034FAF8
:1006900040F207613F2000F02FFA61E00021302096
:1006A00000F02AFA40F20761312000F025FA40F20A
:1006B0000531322000F020FA0021352000F01CFA2C
:1006C00001E01DE01BE041F20461362000F014FA65
:1006D0004FF40171372000F00FFA0121382000F0AB
:1006E0000BFA40F20771392000F006FA00213C2095
:1006F00000F002FA0F213D2000F0FEF930E000BFCB
:100700000621302000F0F8F940F20111312000F00C
:10071000F3F90321322000F0EFF94FF48371352013
:1007200000F0EAF940F60231362000F0E5F940F237
:100730000231372000F0E0F940F20771382000F074
:10074000DBF90721392000F0D7F94FF4C0613C20D4
:1007500000F0D2F940F20B213D2000F0CDF900BFAE
:1007600000BF0021502000F0C7F9EF21512000F018
:10077000C3F90021522000F0BFF940F23F1153208D
:1007800000F0BAF9A5F5A840083830B1A0F57C50C2
:10079000183850B1052807D100E000BF4FF41C51B4
:1007A000602000F0A9F906E000BF4FF42741602067
:1007B00000F0A2F900BF00BF0121612000F09CF908
:1007C00000216A2000F098F90021802000F094F9BF
:1007D0000021812000F090F90021822000F08CF9A6
:1007E0000021832000F088F90021842000F084F9A2
:1007F0000021852000F080F91021902000F07CF984
:100800000021922000F078F90321932000F074F980
:100810004FF48871952000F06FF90021972000F0C7
:100820006BF90021982000F067F941F238010320AC
:1008300000F062F940F23711072000F05DF94FF443
:10084000807002490860002070BD0000100801405F
:100850000146024A1180002070470000020000207B
:100860002DE9F04704460D4616461F4626480078F7
:1008700060B3A019A0F10108E819A0F10109C4F3BF
:100880000F21022000F038F9E1B2032000F034F922
:10089000C8F30F21042000F02FF908F0FF01052014
:1008A00000F02AF9C5F30F21062000F025F9E9B27E
:1008B000072000F021F9C9F30F21082000F01CF9EE
:1008C00009F0FF01092000F017F91BE0A9B2502040
:1008D00000F012F9E819401E81B2512000F00CF925
:1008E000A1B2522000F008F9A019401E81B2532095
:1008F00000F002F9A9B2202000F0FEF8A1B22120F8
:1009000000F0FAF8BDE8F0870800002010B500F00C
:1009100001F810BD0CB5002001900090334800682C
:1009200040F480303149086000BF3048006800F46E
:10093000003000900198401C0190009818B901986F
:10094000B0F5A06FF1D12948006800F4003010B173
:100950000120009001E0002000900098012843D180
:100960002348006840F010002149086008460068EC
:1009700020F0070008600846006840F002000860A8
:100980001A48406819494860084640684860084667
:10099000406840F4806048600846406820F47C105D
:1009A00048600846406840F4E8104860084600681F
:1009B00040F08070086000BF0C48006800F00070D4
:1009C0000028F9D00948406820F003000749486032
:1009D0000846406840F00200486000BF0348406895
:1009E00000F00C000828F9D10CBD000000100240F6
:1009F0000020024010B51348006840F00100114982
:100A0000086008464068104908400E49486008469A
:100A100000680E4908400B4908600846006820F449
:100A2000802008600846406820F4FE0048604FF4CB
:100A30001F008860FFF76AFF4FF0006004490860FC
:100A400010BD0000001002400000FFF8FFFFF6FE9E
:100A500008ED00E002E008C8121F08C1002AFAD120
:100A600070477047002001E001C1121F002AFBD12E
:100A7000704710B50020FFF7EBFEFFF787FB10BDB6
:100A80000949096842F21072B1FBF2F1484305E0EE
:100A900000BF00BF00BF00BF00BF00BF011EA0F12C
:100AA0000100F5D1704700000C00002010B5FFF7E1
:100AB000B5FBFFF7DEFF10BD08B5FFF7F7FF0548F0
:100AC00040231A46642100900846FFF77DFB00BFD3
:100AD000FEE700000C0B00084FF0D840408870473C
:100AE0004FF0D841088070474FF0D8414880704798
:100AF0004FF0D8414880704770B505460C462846EF
:100B0000FFF7EEFF2046FFF7EFFF70BDFA64FB64CE
:100B1000FB64FB64DB64DB6CDB6CDB6CFC6CDB6C54
:100B2000BA6CD87C4B42CE8B8DBC2FE550E550DDA6
:100B3000B1ED50E5EFDC8DC46EBCA461E238C2308B
:100B400041200439A3284D8B6E8B8228A4200619DE
:100B50008600B44B7C7DFB645C6D5C6D5D6D5D6D92
:100B60005E6D5E6D5E6D5D6D5C755C755D6D5D6D24
:100B70005D6D7D757D757D757D757D757D757D750D
:100B80007E7D9E7D7E7D7E7D7E7D9E7DFB5CFB5C95
:100B9000FB64DB64DB64DB64DB64DB64DB64DB643D
:100BA0007964B77CA8316C83CAAB8BCC2EDD4FDD6A
:100BB00012FE33FEF3F592E572DD4672E6612441E2
:100BC000654924412020696ACB7AA649263127212C
:100BD000146CB86C1A6D7D75BE751C653C6D3C6DF2
:100BE0003D6D3D6D3D6D5D6D3C6D3C6D5C6D5C6D59
:100BF0005C6D5D6D5D6D5D757D757D755D755D753E
:100C00007E757E755D755D757E757E7DDA5CDA5C00
:100C1000DA5CDA64BA64BA64BB5CBB5CDC5CDB647F
:100C2000D974967CE841C97A4CBCE9BBECD44EDD62
:100C3000D0ED74FED3ED93E593E512D5066A00205E
:100C40000020C559EEA32FACAD9BCA72CC6A4B42B3
:100C5000F78C766CFA6C5D6D3D65FC5C1C653C6DDB
:100C60001C6D1C6D3C6D3C6D3D6D3D6D3D6D3C6D79
:100C70003C6D3C6D3D755D755D755D755D755D7556
:100C80005D757D757D757D757E7D7E7DDA5CDA5C5A
:100C9000DA64BA64BA64DB64DC5CDC5CFC5CBA5CBD
:100CA000986CB684294AA8720893C9B3ECD44EDD77
:100CB000B1ED91ED54FE14F6B4EDF5ED93E593DD51
:100CC000D4E532D590BCEDABCDA36C8B4A5A8C4A9F
:100CD0001374F45B1B751C653D655D651C651C6DBF
:100CE0001B6D1B6D1C6D3C6D3D6D3D653D6D3C6D23
:100CF0003D753D755D755D755D755D755D755D75A4
:100D00005D755D757D757D757D757D75DA5CDA5C0B
:100D1000DA64DA64DB64DB64DC5CDC5CDC5CDB64F2
:100D2000986C967CEC5ACE93AAA36CC40ED54FDD7A
:100D300090E570E534FE13FED2EDD2ED71DDCFCC3F
:100D400010D572DD32D5EEAB8D9BCF9B8B622B42E3
:100D5000B263D45B3B75FB643D655D651C651C65DA
:100D60001B6D1B6D1C6D3C6D3D6D5D6D3D6D3C6D7A
:100D70003D753D755D755D755D755D755D755D7523
:100D80005D755D755D755D755D755D75DA5CDA5C0B
:100D9000DA64BA64BA64BB64DB5CDC5CBB5CDB64F5
:100DA000B96C967C6F6B309CAFBC51DDAECCEFD490
:100DB0000FD591ED91EDB1ED33FE91EDF2F5D2ED60
:100DC00071E5F0CCB0C430B4AEA34E8BAC62071961
:100DD000515336643B751C653D651C5D1C651C6587
:100DE0001B6D1B6D1C6D3C6D3D6D3D6D3C6D3C6D1B
:100DF0003C6D3C6D3C6D3D755D755D753D753D753E
:100E00005D755D755D755D755D755D75BA5CBA5CCA
:100E1000BA5CBA5CBA5CBA5CBB5CBB5CBB5C795C60
:100E20009864D77C906BAA62ED9B4EB4AFCCCFCCCC
:100E300051E571E530E570EDD1F570ED2EDD4FDD5A
:100E400030DD10D5B0C40FAC4D932D83E94185083A
:100E5000CB21986CFB6C3C6D3D651D651C651C6D64
:100E60001B6D1B6D1C6D1C6D3D653D651C6D1C6D0A
:100E70001C6D1C6D1C6D3C6D3C6D3C6D3C6D3C6D8A
:100E80003C6D3D755D755D755D755D75BA5C9A5CB3
:100E90009A5C9A5C9A5C9A5C9A549B54BB5C7954B9
:100EA000785C7674B16B294A0B7B466A4DB4CEC42C
:100EB000B2E5EFD471E591ED0EDD4FED70ED70ED23
:100EC000EFD48FC46FBC90BC6D93295A262128198A
:100ED0000901D974DA6C1C65FC5C3D651C651B65F9
:100EE000FB6CFB6CFB6CFC641D651D65FC64FC6CA1
:100EF0001C6D1C6D1C6D1C6D1C6D1C6D1C6D1C6DAA
:100F00003C6D3C6D3C6D3D753D753D759A549954F5
:100F1000795C995C9A5C9A5C9A5C9A5C9A54BA5C2B
:100F2000785C5664547C6F6B6E7B6862CB9BCEBCE6
:100F30002CAC6DBC4DBC10DDEFDC30E591ED30DD4F
:100F400051DDD3EDB0C46B930662664106194911B9
:100F50004E2AF974DA64FB64DB5CFC5CFC64DB64E1
:100F6000FB64DB6CFB64FB64FC64FC64FC641C6D74
:100F70001C6D1C6D1C6D1C6D1C6D1C6D1C6D1C6D29
:100F80003C6D3C6D3C6D3C6D3C6D3C6D79547954D1
:100F90007954995C9A5C9A5C9A5CBA5C7A54DB648A
:100FA0009964B86CF784337C1184919CCFACB2D532
:100FB00086722DAC2572CCABCFD44EC431E510D5A2
:100FC0004DBC49938351A451065A295248198600B1
:100FD0005664D96CDA64DB64FC5CBB54DB5CDB64B8
:100FE000DB64DB64DB64DB64FC64FC641C651C6D3B
:100FF0001C6D1C6D1C6D1C6D3C6D3C6D1C6D3C6D49
:101000003C6D3C6D3C6D1C6D1C6D1C6D59547954D0
:101010005954595459547954795479547A54BA6476
:101020001B753A7DD87C757C7484B394A95A4A7B2D
:101030002A7B255AE561A459E98A677AE469C4697B
:10104000E040C4592A7B0A73275205212C32B4533D
:10105000B96CDA6CBA5CDB5CFC64DC5CDB64DB64C2
:10106000DB64DB64DB64FC64FC64FC64FB64FB64E5
:10107000FB64FB64FB64FB64FC6CFC6CFC6CFB645D
:10108000FB641C6D1C6D1C6D1C6D1C6D59545954FA
:10109000595459547954795479547954BA5CDB646D
:1010A0001B6D1A75D874566C557494840C5B484A41
:1010B000C641A541075A8449C97AE982835126620B
:1010C000886AED93CD838531C3180611356CD974C8
:1010D000FA7499649A5CDB5CDB5CBB5CDB64DB64AC
:1010E000DB64DB64DB64FC64FC64FC64DB64DB64A5
:1010F000FB64FB64FB64FB64FB64FC6CFC6CFB64E6
:10110000FB64FC6C1C6D1C6D1C6D1C6D595459549A
:10111000595459547954795479547954DB64DB64C3
:10112000FB6CFB6CB96C7764576C9674B263ED52D0
:101130004B424A4A4D6B6D7B70A42E9C4F9C8C8316
:101140002752284A0842E510A5080809976CDA6C6E
:10115000BA64995CDB64FC64DC64DB64DB64BB6400
:10116000BB64BB64DB64DB64DC64DB64DB64DB64C6
:10117000DB64DB64FB64FB64FB64FB64FB64FB64B7
:10118000FB64FB64FC6C1C6D1C6DFC6C594C594C75
:101190005954795459547954795479549A5C995CD6
:1011A000BA5CBA64996478647864786C777476749D
:1011B000146C9163327CB49414A5CF7B91942C6B06
:1011C0002421C410C9290F4B156C98745864B96454
:1011D000BA64BA5CBA5C9A5C9A549B5CBB5CBB5CBC
:1011E0009A5CBA5CBB64BB64DB5CBB5CBB64DB6409
:1011F000DB64DB64DB64FB64FB64FB64FB64DB6477
:10120000DB64FB64FB64FC6CFC6CFB64594C594C68
:10121000595459545954595458545854585438548A
:101220005854595459545954585C785C385C376454
:10123000576C5774D88418951795F2732A3AA829D1
:10124000A821EE4A346C366C3764385C9964BA6411
:101250009A5C7A5C7A5479547A54BB5C9A5C9A5C56
:101260009A5C9A5C9B5CBB5CBB5CBB5CBB5CBB6420
:10127000BB64DB64DB64DB64DB64DB64DB64DB6496
:10128000DB64DB64FB64FB64FB64FB64594C594C1A
:10129000594C594C5954385438543854385438549B
:1012A000385459545954595459545954595C185430
:1012B000185C175C3764366C935BAF3A314BCF3AAE
:1012C0001043F55B986C986C9964DB6C7A5C7A548B
:1012D00059547954BA5CBA5C9A5CBB5C9A5C9A5C6F
:1012E0009A5C9A5C9B5C9B5CBB5C9B5CBB5CBA5CE9
:1012F000BA5CBB64BB64DB64DB64DB64DB64DB645F
:10130000DB64DB64DB64FB64FB64FB64594C594CB9
:10131000394C384C384C384C38543754585458544D
:1013200059545954594C5A4C5A4C5A4C5A54595471
:101330005A5C3954395C7A64185C754B176457648D
:10134000B974996C585C585459547A5C7A549A5CC4
:101350009A549A54BB5C9B5C595459549A5C9A5C5D
:101360009A5C9A5C9B5CBB5C9B5C9B5CBB5CBA5C68
:10137000BA5CBA5CBA5CBA5CBA5CBA5CDB64DB646B
:10138000DB64DB64DB64DB64DB64DB64594C594C99
:10139000394C384C384C174C174C174C384C585467
:1013A0003854394C594C5A4C5A4C5A4C5A4C394C6A
:1013B0005A547B5C1A541A5CF95B39645964185CA2
:1013C000185C385C795CBA649A5C7A547A549B5C99
:1013D0009A5C7A547A549A549A5CBB5C9A5C9A5C94
:1013E0009A5C9A5CBB5CBB5CBB5CBB5CBB5CBA5C88
:1013F000BA5CBA5CBA5CBA5CBA5CBA5CDB64DB64EB
:10140000DB64DB64DB64DB64BB64BA5C00000000AB
:1014100000000000000000000000000000000000CC
:1014200000000000000000000000000000000000BC
:1014300000000000000000000000000000000000AC
:10144000000000000000000000000000000000009C
:102B00000000000000000000000000002C2B000866
:102B10000000002020000000540A00084C2B000890
:102B20002000002000040000640A00080000FFFFED
:102B3000000000000000000000A24A0400000000A5
:0C2B400000000000010203040607080961
:0400000508000145A9
:00000001FF
