:020000040800F2
:1000000010040020450100084D0100084F010008C0
:1000100051010008530100085501000800000000CC
:100020000000000000000000000000005701000870
:1000300059010008000000005B0100085D01000894
:100040005F0100085F0100085F0100085F01000810
:100050005F0100085F0100085F0100085F01000800
:100060005F0100085F0100085F0100085F010008F0
:100070005F0100085F0100085F0100085F010008E0
:100080005F0100085F0100085F0100085F010008D0
:100090005F0100085F0100085F0100085F010008C0
:1000A0005F0100085F0100085F0100085F010008B0
:1000B0005F0100085F0100085F0100085F010008A0
:1000C0005F0100085F0100085F0100085F01000890
:1000D0005F0100085F0100085F0100085F01000880
:1000E0005F0100085F0100085F0100085F01000870
:1000F0005F0100085F0100085F0100085F01000860
:100100005F0100085F0100085F0100085F0100084F
:100110005F0100085F0100085F0100085F0100083F
:100120005F0100085F0100085F0100085F0100082F
:10013000DFF80CD000F018F8004800473103000841
:10014000100400200648804706480047FEE7FEE707
:10015000FEE7FEE7FEE7FEE7FEE7FEE7FEE7FEE777
:10016000B102000831010008064C074D06E0E068C6
:1001700040F0010394E8070098471034AC42F6D3EE
:10018000FFF7DAFFA8030008C803000805488069E4
:1001900040F00800034988610846806940F4807097
:1001A00088617047001002404FF033300449086006
:1001B0000448406840F0040002494860704700006D
:1001C000040C01400020014010B500F001F810BD02
:1001D0000CB50020019000903348006840F4803056
:1001E0003149086000BF3048006800F400300090DA
:1001F0000198401C0190009818B90198B0F5A06FC3
:10020000F1D12948006800F4003010B101200090BD
:1002100001E0002000900098012843D123480068A5
:1002200040F01000214908600846006820F00300F3
:1002300008600846006840F0020008601A484068FC
:10024000194948600846406848600846406840F4DC
:10025000806048600846406820F47C10486008468A
:10026000406840F4E81048600846006840F080703C
:10027000086000BF0C48006800F000700028F9D04A
:100280000948406820F00300074948600846406874
:1002900040F00200486000BF0348406800F00C00D6
:1002A0000828F9D10CBD00000010024000200240D7
:1002B00010B51348006840F0010011490860084675
:1002C0004068104908400E494860084600680E49D9
:1002D00008400B4908600846006820F48020086048
:1002E0000846406820F4FE0048604FF41F00886014
:1002F000FFF76AFF4FF000600449086010BD00007E
:10030000001002400000FFF8FFFFF6FE08ED00E0DD
:1003100002E008C8121F08C1002AFAD170477047CE
:10032000002001E001C1121F002AFBD1704700002C
:10033000FFF72CFFFFF738FF00201549086026E083
:100340001448806800F4807013490860084600680B
:1003500012490968884211D00F48006870B91049E5
:100360000968491C0E4A11601146097811600D4850
:1003700000BF011EA0F10100FBD100BF06480068CC
:100380000649086006480068000201490860D7E78E
:100390000C0C01400020014000000020040000205F
:1003A0000800002040420F00C803000800000020A1
:1003B0000C00000010030008D40300080C0000200B
:1003C00004040000200300080000000001000000F9
:0403D0000000000029
:0400000508000145A9
:00000001FF
